{
  "_format": "hh-sol-artifact-1",
  "contractName": "Elemental",
  "sourceName": "contracts/Elemental.sol",
  "abi": [
    {
      "inputs": [],
      "stateMutability": "nonpayable",
      "type": "constructor"
    },
    {
      "anonymous": false,
      "inputs": [
        {
          "indexed": true,
          "internalType": "address",
          "name": "owner",
          "type": "address"
        },
        {
          "indexed": true,
          "internalType": "address",
          "name": "approved",
          "type": "address"
        },
        {
          "indexed": true,
          "internalType": "uint256",
          "name": "tokenId",
          "type": "uint256"
        }
      ],
      "name": "Approval",
      "type": "event"
    },
    {
      "anonymous": false,
      "inputs": [
        {
          "indexed": true,
          "internalType": "address",
          "name": "owner",
          "type": "address"
        },
        {
          "indexed": true,
          "internalType": "address",
          "name": "operator",
          "type": "address"
        },
        {
          "indexed": false,
          "internalType": "bool",
          "name": "approved",
          "type": "bool"
        }
      ],
      "name": "ApprovalForAll",
      "type": "event"
    },
    {
      "anonymous": false,
      "inputs": [
        {
          "indexed": true,
          "internalType": "address",
          "name": "previousOwner",
          "type": "address"
        },
        {
          "indexed": true,
          "internalType": "address",
          "name": "newOwner",
          "type": "address"
        }
      ],
      "name": "OwnershipTransferred",
      "type": "event"
    },
    {
      "anonymous": false,
      "inputs": [
        {
          "indexed": true,
          "internalType": "address",
          "name": "from",
          "type": "address"
        },
        {
          "indexed": true,
          "internalType": "address",
          "name": "to",
          "type": "address"
        },
        {
          "indexed": true,
          "internalType": "uint256",
          "name": "tokenId",
          "type": "uint256"
        }
      ],
      "name": "Transfer",
      "type": "event"
    },
    {
      "inputs": [
        {
          "internalType": "address",
          "name": "to",
          "type": "address"
        },
        {
          "internalType": "uint256",
          "name": "tokenId",
          "type": "uint256"
        }
      ],
      "name": "approve",
      "outputs": [],
      "stateMutability": "nonpayable",
      "type": "function"
    },
    {
      "inputs": [],
      "name": "avatar",
      "outputs": [
        {
          "internalType": "bool",
          "name": "",
          "type": "bool"
        }
      ],
      "stateMutability": "view",
      "type": "function"
    },
    {
      "inputs": [
        {
          "internalType": "address",
          "name": "owner",
          "type": "address"
        }
      ],
      "name": "balanceOf",
      "outputs": [
        {
          "internalType": "uint256",
          "name": "",
          "type": "uint256"
        }
      ],
      "stateMutability": "view",
      "type": "function"
    },
    {
      "inputs": [],
      "name": "baseTokenURI",
      "outputs": [
        {
          "internalType": "string",
          "name": "",
          "type": "string"
        }
      ],
      "stateMutability": "view",
      "type": "function"
    },
    {
      "inputs": [
        {
          "internalType": "address",
          "name": "",
          "type": "address"
        }
      ],
      "name": "claimedPerWallet",
      "outputs": [
        {
          "internalType": "uint256",
          "name": "",
          "type": "uint256"
        }
      ],
      "stateMutability": "view",
      "type": "function"
    },
    {
      "inputs": [],
      "name": "dev1Wallet",
      "outputs": [
        {
          "internalType": "address",
          "name": "",
          "type": "address"
        }
      ],
      "stateMutability": "view",
      "type": "function"
    },
    {
      "inputs": [],
      "name": "dev2Wallet",
      "outputs": [
        {
          "internalType": "address",
          "name": "",
          "type": "address"
        }
      ],
      "stateMutability": "view",
      "type": "function"
    },
    {
      "inputs": [],
      "name": "dev3Wallet",
      "outputs": [
        {
          "internalType": "address",
          "name": "",
          "type": "address"
        }
      ],
      "stateMutability": "view",
      "type": "function"
    },
    {
      "inputs": [],
      "name": "gameWinner",
      "outputs": [
        {
          "internalType": "address",
          "name": "",
          "type": "address"
        }
      ],
      "stateMutability": "view",
      "type": "function"
    },
    {
      "inputs": [],
      "name": "gameWon",
      "outputs": [
        {
          "internalType": "bool",
          "name": "",
          "type": "bool"
        }
      ],
      "stateMutability": "view",
      "type": "function"
    },
    {
      "inputs": [
        {
          "internalType": "uint256",
          "name": "tokenId",
          "type": "uint256"
        }
      ],
      "name": "getApproved",
      "outputs": [
        {
          "internalType": "address",
          "name": "",
          "type": "address"
        }
      ],
      "stateMutability": "view",
      "type": "function"
    },
    {
      "inputs": [],
      "name": "godOfAir",
      "outputs": [
        {
          "internalType": "bool",
          "name": "",
          "type": "bool"
        }
      ],
      "stateMutability": "view",
      "type": "function"
    },
    {
      "inputs": [],
      "name": "godOfEarth",
      "outputs": [
        {
          "internalType": "bool",
          "name": "",
          "type": "bool"
        }
      ],
      "stateMutability": "view",
      "type": "function"
    },
    {
      "inputs": [],
      "name": "godOfFire",
      "outputs": [
        {
          "internalType": "bool",
          "name": "",
          "type": "bool"
        }
      ],
      "stateMutability": "view",
      "type": "function"
    },
    {
      "inputs": [],
      "name": "godOfWater",
      "outputs": [
        {
          "internalType": "bool",
          "name": "",
          "type": "bool"
        }
      ],
      "stateMutability": "view",
      "type": "function"
    },
    {
      "inputs": [
        {
          "internalType": "address",
          "name": "owner",
          "type": "address"
        },
        {
          "internalType": "address",
          "name": "operator",
          "type": "address"
        }
      ],
      "name": "isApprovedForAll",
      "outputs": [
        {
          "internalType": "bool",
          "name": "",
          "type": "bool"
        }
      ],
      "stateMutability": "view",
      "type": "function"
    },
    {
      "inputs": [
        {
          "internalType": "uint256",
          "name": "numberOfTokens",
          "type": "uint256"
        }
      ],
      "name": "mint",
      "outputs": [],
      "stateMutability": "payable",
      "type": "function"
    },
    {
      "inputs": [],
      "name": "mintActive",
      "outputs": [
        {
          "internalType": "bool",
          "name": "",
          "type": "bool"
        }
      ],
      "stateMutability": "view",
      "type": "function"
    },
    {
      "inputs": [],
      "name": "mintAvatar",
      "outputs": [],
      "stateMutability": "nonpayable",
      "type": "function"
    },
    {
      "inputs": [
        {
          "internalType": "uint256",
          "name": "stagger",
          "type": "uint256"
        }
      ],
      "name": "mintGod",
      "outputs": [],
      "stateMutability": "nonpayable",
      "type": "function"
    },
    {
      "inputs": [],
      "name": "name",
      "outputs": [
        {
          "internalType": "string",
          "name": "",
          "type": "string"
        }
      ],
      "stateMutability": "view",
      "type": "function"
    },
    {
      "inputs": [],
      "name": "owner",
      "outputs": [
        {
          "internalType": "address",
          "name": "",
          "type": "address"
        }
      ],
      "stateMutability": "view",
      "type": "function"
    },
    {
      "inputs": [
        {
          "internalType": "uint256",
          "name": "tokenId",
          "type": "uint256"
        }
      ],
      "name": "ownerOf",
      "outputs": [
        {
          "internalType": "address",
          "name": "",
          "type": "address"
        }
      ],
      "stateMutability": "view",
      "type": "function"
    },
    {
      "inputs": [],
      "name": "price",
      "outputs": [
        {
          "internalType": "uint256",
          "name": "",
          "type": "uint256"
        }
      ],
      "stateMutability": "view",
      "type": "function"
    },
    {
      "inputs": [],
      "name": "prizeWallet",
      "outputs": [
        {
          "internalType": "address",
          "name": "",
          "type": "address"
        }
      ],
      "stateMutability": "view",
      "type": "function"
    },
    {
      "inputs": [],
      "name": "renounceOwnership",
      "outputs": [],
      "stateMutability": "nonpayable",
      "type": "function"
    },
    {
      "inputs": [
        {
          "internalType": "address",
          "name": "from",
          "type": "address"
        },
        {
          "internalType": "address",
          "name": "to",
          "type": "address"
        },
        {
          "internalType": "uint256",
          "name": "tokenId",
          "type": "uint256"
        }
      ],
      "name": "safeTransferFrom",
      "outputs": [],
      "stateMutability": "nonpayable",
      "type": "function"
    },
    {
      "inputs": [
        {
          "internalType": "address",
          "name": "from",
          "type": "address"
        },
        {
          "internalType": "address",
          "name": "to",
          "type": "address"
        },
        {
          "internalType": "uint256",
          "name": "tokenId",
          "type": "uint256"
        },
        {
          "internalType": "bytes",
          "name": "_data",
          "type": "bytes"
        }
      ],
      "name": "safeTransferFrom",
      "outputs": [],
      "stateMutability": "nonpayable",
      "type": "function"
    },
    {
      "inputs": [
        {
          "internalType": "address",
          "name": "operator",
          "type": "address"
        },
        {
          "internalType": "bool",
          "name": "approved",
          "type": "bool"
        }
      ],
      "name": "setApprovalForAll",
      "outputs": [],
      "stateMutability": "nonpayable",
      "type": "function"
    },
    {
      "inputs": [
        {
          "internalType": "string",
          "name": "baseURI",
          "type": "string"
        }
      ],
      "name": "setBaseURI",
      "outputs": [],
      "stateMutability": "nonpayable",
      "type": "function"
    },
    {
      "inputs": [
        {
          "internalType": "bool",
          "name": "_mintActive",
          "type": "bool"
        }
      ],
      "name": "setMintActive",
      "outputs": [],
      "stateMutability": "nonpayable",
      "type": "function"
    },
    {
      "inputs": [
        {
          "internalType": "bytes4",
          "name": "interfaceId",
          "type": "bytes4"
        }
      ],
      "name": "supportsInterface",
      "outputs": [
        {
          "internalType": "bool",
          "name": "",
          "type": "bool"
        }
      ],
      "stateMutability": "view",
      "type": "function"
    },
    {
      "inputs": [],
      "name": "symbol",
      "outputs": [
        {
          "internalType": "string",
          "name": "",
          "type": "string"
        }
      ],
      "stateMutability": "view",
      "type": "function"
    },
    {
      "inputs": [
        {
          "internalType": "uint256",
          "name": "index",
          "type": "uint256"
        }
      ],
      "name": "tokenByIndex",
      "outputs": [
        {
          "internalType": "uint256",
          "name": "",
          "type": "uint256"
        }
      ],
      "stateMutability": "view",
      "type": "function"
    },
    {
      "inputs": [
        {
          "internalType": "address",
          "name": "owner",
          "type": "address"
        },
        {
          "internalType": "uint256",
          "name": "index",
          "type": "uint256"
        }
      ],
      "name": "tokenOfOwnerByIndex",
      "outputs": [
        {
          "internalType": "uint256",
          "name": "",
          "type": "uint256"
        }
      ],
      "stateMutability": "view",
      "type": "function"
    },
    {
      "inputs": [
        {
          "internalType": "uint256",
          "name": "tokenId",
          "type": "uint256"
        }
      ],
      "name": "tokenURI",
      "outputs": [
        {
          "internalType": "string",
          "name": "",
          "type": "string"
        }
      ],
      "stateMutability": "view",
      "type": "function"
    },
    {
      "inputs": [
        {
          "internalType": "address",
          "name": "_owner",
          "type": "address"
        }
      ],
      "name": "tokensByOwner",
      "outputs": [
        {
          "internalType": "uint16[]",
          "name": "",
          "type": "uint16[]"
        }
      ],
      "stateMutability": "view",
      "type": "function"
    },
    {
      "inputs": [],
      "name": "totalSupply",
      "outputs": [
        {
          "internalType": "uint256",
          "name": "",
          "type": "uint256"
        }
      ],
      "stateMutability": "view",
      "type": "function"
    },
    {
      "inputs": [
        {
          "internalType": "address",
          "name": "from",
          "type": "address"
        },
        {
          "internalType": "address",
          "name": "to",
          "type": "address"
        },
        {
          "internalType": "uint256",
          "name": "tokenId",
          "type": "uint256"
        }
      ],
      "name": "transferFrom",
      "outputs": [],
      "stateMutability": "nonpayable",
      "type": "function"
    },
    {
      "inputs": [
        {
          "internalType": "address",
          "name": "newOwner",
          "type": "address"
        }
      ],
      "name": "transferOwnership",
      "outputs": [],
      "stateMutability": "nonpayable",
      "type": "function"
    },
    {
      "inputs": [],
      "name": "winTheGame",
      "outputs": [],
      "stateMutability": "nonpayable",
      "type": "function"
    },
    {
      "inputs": [],
      "name": "withdraw",
      "outputs": [],
      "stateMutability": "nonpayable",
      "type": "function"
    }
  ],
  "bytecode": "0x60806040526001600c60006101000a81548160ff0219169083151502179055506000600c60016101000a81548160ff0219169083151502179055506000600c60026101000a81548160ff0219169083151502179055506000600c60036101000a81548160ff0219169083151502179055506000600c60046101000a81548160ff0219169083151502179055506000600c60056101000a81548160ff0219169083151502179055506000600c60066101000a81548160ff021916908315150217905550348015620000ce57600080fd5b506040518060400160405280600981526020017f456c656d656e74616c00000000000000000000000000000000000000000000008152506040518060400160405280600481526020017f454c454d0000000000000000000000000000000000000000000000000000000081525081600090805190602001906200015392919062000433565b5080600190805190602001906200016c92919062000433565b5050506200018f620001836200029060201b60201c565b6200029860201b60201c565b620001b960405180608001604052806044815260200162006470604491396200035e60201b60201c565b6000600190505b6117708161ffff1611620002895760008161ffff1614158015620001e9575060018161ffff1614155b8015620001fc57506105dd8161ffff1614155b80156200020f5750610bb98161ffff1614155b80156200022257506111958161ffff1614155b156200027357600b8190806001815401808255809150506001900390600052602060002090601091828204019190066002029091909190916101000a81548161ffff021916908361ffff1602179055505b808062000280906200059c565b915050620001c0565b506200062a565b600033905090565b6000600a60009054906101000a900473ffffffffffffffffffffffffffffffffffffffff16905081600a60006101000a81548173ffffffffffffffffffffffffffffffffffffffff021916908373ffffffffffffffffffffffffffffffffffffffff1602179055508173ffffffffffffffffffffffffffffffffffffffff168173ffffffffffffffffffffffffffffffffffffffff167f8be0079c531659141344cd1fd0a4f28419497f9722a3daafe3b4186f6b6457e060405160405180910390a35050565b6200036e6200029060201b60201c565b73ffffffffffffffffffffffffffffffffffffffff16620003946200040960201b60201c565b73ffffffffffffffffffffffffffffffffffffffff1614620003ed576040517f08c379a0000000000000000000000000000000000000000000000000000000008152600401620003e49062000525565b60405180910390fd5b80600e90805190602001906200040592919062000433565b5050565b6000600a60009054906101000a900473ffffffffffffffffffffffffffffffffffffffff16905090565b828054620004419062000566565b90600052602060002090601f016020900481019282620004655760008555620004b1565b82601f106200048057805160ff1916838001178555620004b1565b82800160010185558215620004b1579182015b82811115620004b057825182559160200191906001019062000493565b5b509050620004c09190620004c4565b5090565b5b80821115620004df576000816000905550600101620004c5565b5090565b6000620004f260208362000547565b91507f4f776e61626c653a2063616c6c6572206973206e6f7420746865206f776e65726000830152602082019050919050565b600060208201905081810360008301526200054081620004e3565b9050919050565b600082825260208201905092915050565b600061ffff82169050919050565b600060028204905060018216806200057f57607f821691505b60208210811415620005965762000595620005fb565b5b50919050565b6000620005a98262000558565b915061ffff821415620005c157620005c0620005cc565b5b600182019050919050565b7f4e487b7100000000000000000000000000000000000000000000000000000000600052601160045260246000fd5b7f4e487b7100000000000000000000000000000000000000000000000000000000600052602260045260246000fd5b615e36806200063a6000396000f3fe6080604052600436106102515760003560e01c806357b6e07b11610139578063a035b1fe116100b6578063c87b56dd1161007a578063c87b56dd14610885578063c94f598b146108c2578063d547cfb7146108ed578063e985e9c514610918578063ee1cc94414610955578063f2fde38b1461097e57610251565b8063a035b1fe146107c1578063a0712d68146107ec578063a22cb46514610808578063ae6a4cac14610831578063b88d4fde1461085c57610251565b806370a08231116100fd57806370a08231146106ec578063715018a61461072957806384ded6c7146107405780638da5cb5b1461076b57806395d89b411461079657610251565b806357b6e07b146106055780635aef7de61461063057806360499b931461065b5780636352211e146106865780636bfa81f2146106c357610251565b80632cea3109116101d25780633ee698e8116101965780633ee698e81461050957806342842e0e146105345780634c42cfcc1461055d5780634f6ccce7146105745780634fe92618146105b157806355f804b3146105dc57610251565b80632cea3109146104365780632f745c5914610461578063392d615a1461049e5780633ccfd60b146104db5780633e9390d2146104f257610251565b80630d381a28116102195780630d381a281461034f57806318160ddd1461038c5780631d9ab6fe146103b757806323b872dd146103e257806325fd90f31461040b57610251565b806301ffc9a714610256578063069a825c1461029357806306fdde03146102be578063081812fc146102e9578063095ea7b314610326575b600080fd5b34801561026257600080fd5b5061027d600480360381019061027891906144c7565b6109a7565b60405161028a9190615387565b60405180910390f35b34801561029f57600080fd5b506102a8610a21565b6040516102b59190615387565b60405180910390f35b3480156102ca57600080fd5b506102d3610a34565b6040516102e091906153bd565b60405180910390f35b3480156102f557600080fd5b50610310600480360381019061030b919061455a565b610ac6565b60405161031d91906152fe565b60405180910390f35b34801561033257600080fd5b5061034d60048036038101906103489190614421565b610b4b565b005b34801561035b57600080fd5b506103766004803603810190610371919061428d565b610c63565b6040516103839190615365565b60405180910390f35b34801561039857600080fd5b506103a1610df5565b6040516103ae91906157ff565b60405180910390f35b3480156103c357600080fd5b506103cc610e02565b6040516103d99190615387565b60405180910390f35b3480156103ee57600080fd5b506104096004803603810190610404919061431b565b610e15565b005b34801561041757600080fd5b50610420610e75565b60405161042d9190615387565b60405180910390f35b34801561044257600080fd5b5061044b610e88565b60405161045891906152fe565b60405180910390f35b34801561046d57600080fd5b5061048860048036038101906104839190614421565b610ea0565b60405161049591906157ff565b60405180910390f35b3480156104aa57600080fd5b506104c560048036038101906104c0919061428d565b610f45565b6040516104d291906157ff565b60405180910390f35b3480156104e757600080fd5b506104f0610f5d565b005b3480156104fe57600080fd5b506105076110a1565b005b34801561051557600080fd5b5061051e611293565b60405161052b91906152fe565b60405180910390f35b34801561054057600080fd5b5061055b6004803603810190610556919061431b565b6112ab565b005b34801561056957600080fd5b506105726112cb565b005b34801561058057600080fd5b5061059b6004803603810190610596919061455a565b61173c565b6040516105a891906157ff565b60405180910390f35b3480156105bd57600080fd5b506105c66117d3565b6040516105d391906152fe565b60405180910390f35b3480156105e857600080fd5b5061060360048036038101906105fe9190614519565b6117eb565b005b34801561061157600080fd5b5061061a611881565b6040516106279190615387565b60405180910390f35b34801561063c57600080fd5b50610645611894565b6040516106529190615387565b60405180910390f35b34801561066757600080fd5b506106706118a7565b60405161067d9190615387565b60405180910390f35b34801561069257600080fd5b506106ad60048036038101906106a8919061455a565b6118ba565b6040516106ba91906152fe565b60405180910390f35b3480156106cf57600080fd5b506106ea60048036038101906106e5919061455a565b61196c565b005b3480156106f857600080fd5b50610713600480360381019061070e919061428d565b61205b565b60405161072091906157ff565b60405180910390f35b34801561073557600080fd5b5061073e612113565b005b34801561074c57600080fd5b5061075561219b565b60405161076291906152fe565b60405180910390f35b34801561077757600080fd5b506107806121b3565b60405161078d91906152fe565b60405180910390f35b3480156107a257600080fd5b506107ab6121dd565b6040516107b891906153bd565b60405180910390f35b3480156107cd57600080fd5b506107d661226f565b6040516107e391906157ff565b60405180910390f35b6108066004803603810190610801919061455a565b61227a565b005b34801561081457600080fd5b5061082f600480360381019061082a91906143e5565b6126b8565b005b34801561083d57600080fd5b50610846612839565b6040516108539190615387565b60405180910390f35b34801561086857600080fd5b50610883600480360381019061087e919061436a565b61284c565b005b34801561089157600080fd5b506108ac60048036038101906108a7919061455a565b6128ae565b6040516108b991906153bd565b60405180910390f35b3480156108ce57600080fd5b506108d7612955565b6040516108e491906152fe565b60405180910390f35b3480156108f957600080fd5b5061090261297b565b60405161090f91906153bd565b60405180910390f35b34801561092457600080fd5b5061093f600480360381019061093a91906142df565b612a09565b60405161094c9190615387565b60405180910390f35b34801561096157600080fd5b5061097c6004803603810190610977919061449e565b612a9d565b005b34801561098a57600080fd5b506109a560048036038101906109a0919061428d565b612b36565b005b60007f780e9d63000000000000000000000000000000000000000000000000000000007bffffffffffffffffffffffffffffffffffffffffffffffffffffffff1916827bffffffffffffffffffffffffffffffffffffffffffffffffffffffff19161480610a1a5750610a1982612c2e565b5b9050919050565b600c60069054906101000a900460ff1681565b606060008054610a4390615b92565b80601f0160208091040260200160405190810160405280929190818152602001828054610a6f90615b92565b8015610abc5780601f10610a9157610100808354040283529160200191610abc565b820191906000526020600020905b815481529060010190602001808311610a9f57829003601f168201915b5050505050905090565b6000610ad182612d10565b610b10576040517f08c379a0000000000000000000000000000000000000000000000000000000008152600401610b07906155df565b60405180910390fd5b6004600083815260200190815260200160002060009054906101000a900473ffffffffffffffffffffffffffffffffffffffff169050919050565b6000610b56826118ba565b90508073ffffffffffffffffffffffffffffffffffffffff168373ffffffffffffffffffffffffffffffffffffffff161415610bc7576040517f08c379a0000000000000000000000000000000000000000000000000000000008152600401610bbe906156bf565b60405180910390fd5b8073ffffffffffffffffffffffffffffffffffffffff16610be6612d7c565b73ffffffffffffffffffffffffffffffffffffffff161480610c155750610c1481610c0f612d7c565b612a09565b5b610c54576040517f08c379a0000000000000000000000000000000000000000000000000000000008152600401610c4b9061553f565b60405180910390fd5b610c5e8383612d84565b505050565b60606000610c708361205b565b90506000811415610cf357600067ffffffffffffffff811115610cbc577f4e487b7100000000000000000000000000000000000000000000000000000000600052604160045260246000fd5b604051908082528060200260200182016040528015610cea5781602001602082028036833780820191505090505b50915050610df0565b60008167ffffffffffffffff811115610d35577f4e487b7100000000000000000000000000000000000000000000000000000000600052604160045260246000fd5b604051908082528060200260200182016040528015610d635781602001602082028036833780820191505090505b50905060005b828161ffff161015610de957610d83858261ffff16610ea0565b828261ffff1681518110610dc0577f4e487b7100000000000000000000000000000000000000000000000000000000600052603260045260246000fd5b602002602001019061ffff16908161ffff16815250508080610de190615bc4565b915050610d69565b8193505050505b919050565b6000600880549050905090565b600c60049054906101000a900460ff1681565b610e26610e20612d7c565b82612e3d565b610e65576040517f08c379a0000000000000000000000000000000000000000000000000000000008152600401610e5c9061571f565b60405180910390fd5b610e70838383612f1b565b505050565b600c60009054906101000a900460ff1681565b7309b0574eee786d945a7b33c675b943f1f8b4ad6481565b6000610eab8361205b565b8210610eec576040517f08c379a0000000000000000000000000000000000000000000000000000000008152600401610ee3906153ff565b60405180910390fd5b600660008473ffffffffffffffffffffffffffffffffffffffff1673ffffffffffffffffffffffffffffffffffffffff168152602001908152602001600020600083815260200190815260200160002054905092915050565b600d6020528060005260406000206000915090505481565b610f65612d7c565b73ffffffffffffffffffffffffffffffffffffffff16610f836121b3565b73ffffffffffffffffffffffffffffffffffffffff1614610fd9576040517f08c379a0000000000000000000000000000000000000000000000000000000008152600401610fd09061561f565b60405180910390fd5b60004790503373ffffffffffffffffffffffffffffffffffffffff166108fc829081150290604051600060405180830381858888f19350505050158015611024573d6000803e3d6000fd5b5060001515600c60069054906101000a900460ff161515141561109e576001600c60066101000a81548160ff02191690831515021790555033600c60076101000a81548173ffffffffffffffffffffffffffffffffffffffff021916908373ffffffffffffffffffffffffffffffffffffffff1602179055505b50565b60001515600c60069054906101000a900460ff161515146110f7576040517f08c379a00000000000000000000000000000000000000000000000000000000081526004016110ee9061545f565b60405180910390fd5b3373ffffffffffffffffffffffffffffffffffffffff163073ffffffffffffffffffffffffffffffffffffffff16636352211e60006040518263ffffffff1660e01b815260040161114891906153a2565b60206040518083038186803b15801561116057600080fd5b505afa158015611174573d6000803e3d6000fd5b505050506040513d601f19601f8201168201806040525081019061119891906142b6565b73ffffffffffffffffffffffffffffffffffffffff16146111ee576040517f08c379a00000000000000000000000000000000000000000000000000000000081526004016111e59061549f565b60405180910390fd5b3373ffffffffffffffffffffffffffffffffffffffff166108fc479081150290604051600060405180830381858888f19350505050158015611234573d6000803e3d6000fd5b506001600c60066101000a81548160ff02191690831515021790555033600c60076101000a81548173ffffffffffffffffffffffffffffffffffffffff021916908373ffffffffffffffffffffffffffffffffffffffff160217905550565b7309b0574eee786d945a7b33c675b943f1f8b4ad6481565b6112c68383836040518060200160405280600081525061284c565b505050565b60001515600c60059054906101000a900460ff16151514611321576040517f08c379a00000000000000000000000000000000000000000000000000000000081526004016113189061559f565b60405180910390fd5b60006001905060006105dd90506000610bb990506000611195905060003073ffffffffffffffffffffffffffffffffffffffff16630d381a28336040518263ffffffff1660e01b815260040161137791906152fe565b60006040518083038186803b15801561138f57600080fd5b505afa1580156113a3573d6000803e3d6000fd5b505050506040513d6000823e3d601f19601f820116820180604052508101906113cc919061445d565b90506000600767ffffffffffffffff811115611411577f4e487b7100000000000000000000000000000000000000000000000000000000600052604160045260246000fd5b60405190808252806020026020018201604052801561143f5781602001602082028036833780820191505090505b50905060005b82518161ffff16101561163a576000838261ffff1681518110611491577f4e487b7100000000000000000000000000000000000000000000000000000000600052603260045260246000fd5b602002602001015190508061ffff168814156114fe576001836000815181106114e3577f4e487b7100000000000000000000000000000000000000000000000000000000600052603260045260246000fd5b602002602001019061ffff16908161ffff1681525050611626565b8061ffff1687141561156157600183600181518110611546577f4e487b7100000000000000000000000000000000000000000000000000000000600052603260045260246000fd5b602002602001019061ffff16908161ffff1681525050611625565b8061ffff168614156115c4576001836002815181106115a9577f4e487b7100000000000000000000000000000000000000000000000000000000600052603260045260246000fd5b602002602001019061ffff16908161ffff1681525050611624565b8061ffff168514156116235760018360038151811061160c577f4e487b7100000000000000000000000000000000000000000000000000000000600052603260045260246000fd5b602002602001019061ffff16908161ffff16815250505b5b5b5b50808061163290615bc4565b915050611445565b50600080600090505b82518161ffff1610156116c4576001838261ffff168151811061168f577f4e487b7100000000000000000000000000000000000000000000000000000000600052603260045260246000fd5b602002602001015161ffff1614156116b1576001826116ae9190615953565b91505b80806116bc90615bc4565b915050611643565b5060048161ffff16101561170d576040517f08c379a0000000000000000000000000000000000000000000000000000000008152600401611704906157df565b60405180910390fd5b611718336000613177565b6001600c60056101000a81548160ff02191690831515021790555050505050505050565b6000611746610df5565b8210611787576040517f08c379a000000000000000000000000000000000000000000000000000000000815260040161177e9061573f565b60405180910390fd5b600882815481106117c1577f4e487b7100000000000000000000000000000000000000000000000000000000600052603260045260246000fd5b90600052602060002001549050919050565b7309b0574eee786d945a7b33c675b943f1f8b4ad6481565b6117f3612d7c565b73ffffffffffffffffffffffffffffffffffffffff166118116121b3565b73ffffffffffffffffffffffffffffffffffffffff1614611867576040517f08c379a000000000000000000000000000000000000000000000000000000000815260040161185e9061561f565b60405180910390fd5b80600e908051906020019061187d929190613ff1565b5050565b600c60039054906101000a900460ff1681565b600c60059054906101000a900460ff1681565b600c60029054906101000a900460ff1681565b6000806002600084815260200190815260200160002060009054906101000a900473ffffffffffffffffffffffffffffffffffffffff169050600073ffffffffffffffffffffffffffffffffffffffff168173ffffffffffffffffffffffffffffffffffffffff161415611963576040517f08c379a000000000000000000000000000000000000000000000000000000000815260040161195a9061557f565b60405180910390fd5b80915050919050565b60008114156119d05760001515600c60019054906101000a900460ff161515146119cb576040517f08c379a00000000000000000000000000000000000000000000000000000000081526004016119c29061579f565b60405180910390fd5b611afe565b6105dc811415611a355760001515600c60029054906101000a900460ff16151514611a30576040517f08c379a0000000000000000000000000000000000000000000000000000000008152600401611a279061551f565b60405180910390fd5b611afd565b610bb8811415611a9a5760001515600c60039054906101000a900460ff16151514611a95576040517f08c379a0000000000000000000000000000000000000000000000000000000008152600401611a8c9061579f565b60405180910390fd5b611afc565b611194811415611afb5760001515600c60049054906101000a900460ff16151514611afa576040517f08c379a0000000000000000000000000000000000000000000000000000000008152600401611af19061577f565b60405180910390fd5b5b5b5b5b60003073ffffffffffffffffffffffffffffffffffffffff16630d381a28336040518263ffffffff1660e01b8152600401611b3991906152fe565b60006040518083038186803b158015611b5157600080fd5b505afa158015611b65573d6000803e3d6000fd5b505050506040513d6000823e3d601f19601f82011682018060405250810190611b8e919061445d565b90506000600767ffffffffffffffff811115611bd3577f4e487b7100000000000000000000000000000000000000000000000000000000600052604160045260246000fd5b604051908082528060200260200182016040528015611c015781602001602082028036833780820191505090505b50905060005b82518161ffff161015611ead576000838261ffff1681518110611c53577f4e487b7100000000000000000000000000000000000000000000000000000000600052603260045260246000fd5b60200260200101519050848161ffff1611611c6d57611e99565b6102ef85611c7b919061598b565b8161ffff1611611cdc57600183600081518110611cc1577f4e487b7100000000000000000000000000000000000000000000000000000000600052603260045260246000fd5b602002602001019061ffff16908161ffff1681525050611e98565b6104b185611cea919061598b565b8161ffff1611611d4b57600183600181518110611d30577f4e487b7100000000000000000000000000000000000000000000000000000000600052603260045260246000fd5b602002602001019061ffff16908161ffff1681525050611e97565b61059285611d59919061598b565b8161ffff1611611dba57600183600281518110611d9f577f4e487b7100000000000000000000000000000000000000000000000000000000600052603260045260246000fd5b602002602001019061ffff16908161ffff1681525050611e96565b6105d885611dc8919061598b565b8161ffff1611611e2957600183600381518110611e0e577f4e487b7100000000000000000000000000000000000000000000000000000000600052603260045260246000fd5b602002602001019061ffff16908161ffff1681525050611e95565b6105dc85611e37919061598b565b8161ffff1611611e9457600183600481518110611e7d577f4e487b7100000000000000000000000000000000000000000000000000000000600052603260045260246000fd5b602002602001019061ffff16908161ffff16815250505b5b5b5b5b5b508080611ea590615bc4565b915050611c07565b50600080600090505b82518161ffff161015611f37576001838261ffff1681518110611f02577f4e487b7100000000000000000000000000000000000000000000000000000000600052603260045260246000fd5b602002602001015161ffff161415611f2457600182611f219190615953565b91505b8080611f2f90615bc4565b915050611eb6565b5060058161ffff161015611f80576040517f08c379a0000000000000000000000000000000000000000000000000000000008152600401611f77906153df565b60405180910390fd5b6000841415611fb457611f94336001613177565b6001600c60016101000a81548160ff021916908315150217905550612055565b6105dc841415611fea57611fca336105dd613177565b6001600c60026101000a81548160ff021916908315150217905550612054565b610bb88414156120205761200033610bb9613177565b6001600c60036101000a81548160ff021916908315150217905550612053565b6111948414156120525761203633611195613177565b6001600c60046101000a81548160ff0219169083151502179055505b5b5b5b50505050565b60008073ffffffffffffffffffffffffffffffffffffffff168273ffffffffffffffffffffffffffffffffffffffff1614156120cc576040517f08c379a00000000000000000000000000000000000000000000000000000000081526004016120c39061555f565b60405180910390fd5b600360008373ffffffffffffffffffffffffffffffffffffffff1673ffffffffffffffffffffffffffffffffffffffff168152602001908152602001600020549050919050565b61211b612d7c565b73ffffffffffffffffffffffffffffffffffffffff166121396121b3565b73ffffffffffffffffffffffffffffffffffffffff161461218f576040517f08c379a00000000000000000000000000000000000000000000000000000000081526004016121869061561f565b60405180910390fd5b6121996000613195565b565b7309b0574eee786d945a7b33c675b943f1f8b4ad6481565b6000600a60009054906101000a900473ffffffffffffffffffffffffffffffffffffffff16905090565b6060600180546121ec90615b92565b80601f016020809104026020016040519081016040528092919081815260200182805461221890615b92565b80156122655780601f1061223a57610100808354040283529160200191612265565b820191906000526020600020905b81548152906001019060200180831161224857829003601f168201915b5050505050905090565b6602d79883d2000081565b60011515600c60009054906101000a900460ff161515146122d0576040517f08c379a00000000000000000000000000000000000000000000000000000000081526004016122c7906156ff565b60405180910390fd5b3373ffffffffffffffffffffffffffffffffffffffff163273ffffffffffffffffffffffffffffffffffffffff161461233e576040517f08c379a00000000000000000000000000000000000000000000000000000000081526004016123359061567f565b60405180910390fd5b60008111612381576040517f08c379a00000000000000000000000000000000000000000000000000000000081526004016123789061569f565b60405180910390fd5b60648111156123c5576040517f08c379a00000000000000000000000000000000000000000000000000000000081526004016123bc906156df565b60405180910390fd5b600b8054905081111561240d576040517f08c379a00000000000000000000000000000000000000000000000000000000081526004016124049061575f565b60405180910390fd5b604081600d60003373ffffffffffffffffffffffffffffffffffffffff1673ffffffffffffffffffffffffffffffffffffffff1681526020019081526020016000205461245a919061598b565b111561249b576040517f08c379a0000000000000000000000000000000000000000000000000000000008152600401612492906157bf565b60405180910390fd5b6124b5816602d79883d2000061325b90919063ffffffff16565b3410156124f7576040517f08c379a00000000000000000000000000000000000000000000000000000000081526004016124ee906155ff565b60405180910390fd5b60005b8181101561258557600061250e600b613271565b905061251a3382613177565b6001600d60003373ffffffffffffffffffffffffffffffffffffffff1673ffffffffffffffffffffffffffffffffffffffff168152602001908152602001600020600082825461256a919061598b565b9250508190555050808061257d90615bef565b9150506124fa565b5060006064600f346125979190615a12565b6125a191906159e1565b90507309b0574eee786d945a7b33c675b943f1f8b4ad6473ffffffffffffffffffffffffffffffffffffffff166108fc829081150290604051600060405180830381858888f193505050501580156125fd573d6000803e3d6000fd5b507309b0574eee786d945a7b33c675b943f1f8b4ad6473ffffffffffffffffffffffffffffffffffffffff166108fc829081150290604051600060405180830381858888f19350505050158015612658573d6000803e3d6000fd5b507309b0574eee786d945a7b33c675b943f1f8b4ad6473ffffffffffffffffffffffffffffffffffffffff166108fc829081150290604051600060405180830381858888f193505050501580156126b3573d6000803e3d6000fd5b505050565b6126c0612d7c565b73ffffffffffffffffffffffffffffffffffffffff168273ffffffffffffffffffffffffffffffffffffffff16141561272e576040517f08c379a0000000000000000000000000000000000000000000000000000000008152600401612725906154df565b60405180910390fd5b806005600061273b612d7c565b73ffffffffffffffffffffffffffffffffffffffff1673ffffffffffffffffffffffffffffffffffffffff16815260200190815260200160002060008473ffffffffffffffffffffffffffffffffffffffff1673ffffffffffffffffffffffffffffffffffffffff16815260200190815260200160002060006101000a81548160ff0219169083151502179055508173ffffffffffffffffffffffffffffffffffffffff166127e8612d7c565b73ffffffffffffffffffffffffffffffffffffffff167f17307eab39ab6107e8899845ad3d59bd9653f200f220920489ca2b5937696c318360405161282d9190615387565b60405180910390a35050565b600c60019054906101000a900460ff1681565b61285d612857612d7c565b83612e3d565b61289c576040517f08c379a00000000000000000000000000000000000000000000000000000000081526004016128939061571f565b60405180910390fd5b6128a884848484613428565b50505050565b60606128b982612d10565b6128f8576040517f08c379a00000000000000000000000000000000000000000000000000000000081526004016128ef9061565f565b60405180910390fd5b6000612902613484565b90506000815111612922576040518060200160405280600081525061294d565b8061292c84613516565b60405160200161293d92919061527b565b6040516020818303038152906040525b915050919050565b600c60079054906101000a900473ffffffffffffffffffffffffffffffffffffffff1681565b600e805461298890615b92565b80601f01602080910402602001604051908101604052809291908181526020018280546129b490615b92565b8015612a015780601f106129d657610100808354040283529160200191612a01565b820191906000526020600020905b8154815290600101906020018083116129e457829003601f168201915b505050505081565b6000600560008473ffffffffffffffffffffffffffffffffffffffff1673ffffffffffffffffffffffffffffffffffffffff16815260200190815260200160002060008373ffffffffffffffffffffffffffffffffffffffff1673ffffffffffffffffffffffffffffffffffffffff16815260200190815260200160002060009054906101000a900460ff16905092915050565b612aa5612d7c565b73ffffffffffffffffffffffffffffffffffffffff16612ac36121b3565b73ffffffffffffffffffffffffffffffffffffffff1614612b19576040517f08c379a0000000000000000000000000000000000000000000000000000000008152600401612b109061561f565b60405180910390fd5b80600c60006101000a81548160ff02191690831515021790555050565b612b3e612d7c565b73ffffffffffffffffffffffffffffffffffffffff16612b5c6121b3565b73ffffffffffffffffffffffffffffffffffffffff1614612bb2576040517f08c379a0000000000000000000000000000000000000000000000000000000008152600401612ba99061561f565b60405180910390fd5b600073ffffffffffffffffffffffffffffffffffffffff168173ffffffffffffffffffffffffffffffffffffffff161415612c22576040517f08c379a0000000000000000000000000000000000000000000000000000000008152600401612c199061543f565b60405180910390fd5b612c2b81613195565b50565b60007f80ac58cd000000000000000000000000000000000000000000000000000000007bffffffffffffffffffffffffffffffffffffffffffffffffffffffff1916827bffffffffffffffffffffffffffffffffffffffffffffffffffffffff19161480612cf957507f5b5e139f000000000000000000000000000000000000000000000000000000007bffffffffffffffffffffffffffffffffffffffffffffffffffffffff1916827bffffffffffffffffffffffffffffffffffffffffffffffffffffffff1916145b80612d095750612d08826136c3565b5b9050919050565b60008073ffffffffffffffffffffffffffffffffffffffff166002600084815260200190815260200160002060009054906101000a900473ffffffffffffffffffffffffffffffffffffffff1673ffffffffffffffffffffffffffffffffffffffff1614159050919050565b600033905090565b816004600083815260200190815260200160002060006101000a81548173ffffffffffffffffffffffffffffffffffffffff021916908373ffffffffffffffffffffffffffffffffffffffff160217905550808273ffffffffffffffffffffffffffffffffffffffff16612df7836118ba565b73ffffffffffffffffffffffffffffffffffffffff167f8c5be1e5ebec7d5bd14f71427d1e84f3dd0314c0f7b2291e5b200ac8c7c3b92560405160405180910390a45050565b6000612e4882612d10565b612e87576040517f08c379a0000000000000000000000000000000000000000000000000000000008152600401612e7e906154ff565b60405180910390fd5b6000612e92836118ba565b90508073ffffffffffffffffffffffffffffffffffffffff168473ffffffffffffffffffffffffffffffffffffffff161480612f0157508373ffffffffffffffffffffffffffffffffffffffff16612ee984610ac6565b73ffffffffffffffffffffffffffffffffffffffff16145b80612f125750612f118185612a09565b5b91505092915050565b8273ffffffffffffffffffffffffffffffffffffffff16612f3b826118ba565b73ffffffffffffffffffffffffffffffffffffffff1614612f91576040517f08c379a0000000000000000000000000000000000000000000000000000000008152600401612f889061563f565b60405180910390fd5b600073ffffffffffffffffffffffffffffffffffffffff168273ffffffffffffffffffffffffffffffffffffffff161415613001576040517f08c379a0000000000000000000000000000000000000000000000000000000008152600401612ff8906154bf565b60405180910390fd5b61300c83838361372d565b613017600082612d84565b6001600360008573ffffffffffffffffffffffffffffffffffffffff1673ffffffffffffffffffffffffffffffffffffffff16815260200190815260200160002060008282546130679190615a6c565b925050819055506001600360008473ffffffffffffffffffffffffffffffffffffffff1673ffffffffffffffffffffffffffffffffffffffff16815260200190815260200160002060008282546130be919061598b565b92505081905550816002600083815260200190815260200160002060006101000a81548173ffffffffffffffffffffffffffffffffffffffff021916908373ffffffffffffffffffffffffffffffffffffffff160217905550808273ffffffffffffffffffffffffffffffffffffffff168473ffffffffffffffffffffffffffffffffffffffff167fddf252ad1be2c89b69c2b068fc378daa952ba7f163c4a11628f55a4df523b3ef60405160405180910390a4505050565b613191828260405180602001604052806000815250613841565b5050565b6000600a60009054906101000a900473ffffffffffffffffffffffffffffffffffffffff16905081600a60006101000a81548173ffffffffffffffffffffffffffffffffffffffff021916908373ffffffffffffffffffffffffffffffffffffffff1602179055508173ffffffffffffffffffffffffffffffffffffffff168173ffffffffffffffffffffffffffffffffffffffff167f8be0079c531659141344cd1fd0a4f28419497f9722a3daafe3b4186f6b6457e060405160405180910390a35050565b600081836132699190615a12565b905092915050565b60008061327d8361389c565b905060008382815481106132ba577f4e487b7100000000000000000000000000000000000000000000000000000000600052603260045260246000fd5b90600052602060002090601091828204019190066002029054906101000a900461ffff1661ffff16905083600185805490506132f69190615a6c565b8154811061332d577f4e487b7100000000000000000000000000000000000000000000000000000000600052603260045260246000fd5b90600052602060002090601091828204019190066002029054906101000a900461ffff1684838154811061338a577f4e487b7100000000000000000000000000000000000000000000000000000000600052603260045260246000fd5b90600052602060002090601091828204019190066002026101000a81548161ffff021916908361ffff160217905550838054806133f0577f4e487b7100000000000000000000000000000000000000000000000000000000600052603160045260246000fd5b60019003818190600052602060002090601091828204019190066002026101000a81549061ffff021916905590558092505050919050565b613433848484612f1b565b61343f848484846138fc565b61347e576040517f08c379a00000000000000000000000000000000000000000000000000000000081526004016134759061541f565b60405180910390fd5b50505050565b6060600e805461349390615b92565b80601f01602080910402602001604051908101604052809291908181526020018280546134bf90615b92565b801561350c5780601f106134e15761010080835404028352916020019161350c565b820191906000526020600020905b8154815290600101906020018083116134ef57829003601f168201915b5050505050905090565b6060600082141561355e576040518060400160405280600181526020017f300000000000000000000000000000000000000000000000000000000000000081525090506136be565b600082905060005b6000821461359057808061357990615bef565b915050600a8261358991906159e1565b9150613566565b60008167ffffffffffffffff8111156135d2577f4e487b7100000000000000000000000000000000000000000000000000000000600052604160045260246000fd5b6040519080825280601f01601f1916602001820160405280156136045781602001600182028036833780820191505090505b5090505b600085146136b75760018261361d9190615a6c565b9150600a8561362c9190615c82565b6030613638919061598b565b60f81b818381518110613674577f4e487b7100000000000000000000000000000000000000000000000000000000600052603260045260246000fd5b60200101907effffffffffffffffffffffffffffffffffffffffffffffffffffffffffffff1916908160001a905350600a856136b091906159e1565b9450613608565b8093505050505b919050565b60007f01ffc9a7000000000000000000000000000000000000000000000000000000007bffffffffffffffffffffffffffffffffffffffffffffffffffffffff1916827bffffffffffffffffffffffffffffffffffffffffffffffffffffffff1916149050919050565b613738838383613a93565b600073ffffffffffffffffffffffffffffffffffffffff168373ffffffffffffffffffffffffffffffffffffffff16141561377b5761377681613a98565b6137ba565b8173ffffffffffffffffffffffffffffffffffffffff168373ffffffffffffffffffffffffffffffffffffffff16146137b9576137b88382613ae1565b5b5b600073ffffffffffffffffffffffffffffffffffffffff168273ffffffffffffffffffffffffffffffffffffffff1614156137fd576137f881613c4e565b61383c565b8273ffffffffffffffffffffffffffffffffffffffff168273ffffffffffffffffffffffffffffffffffffffff161461383b5761383a8282613d91565b5b5b505050565b61384b8383613e10565b61385860008484846138fc565b613897576040517f08c379a000000000000000000000000000000000000000000000000000000000815260040161388e9061541f565b60405180910390fd5b505050565b60008082805490506001436138b19190615a6c565b404144336040516020016138c995949392919061529f565b6040516020818303038152906040528051906020012060001c90508280549050816138f49190615c82565b915050919050565b600061391d8473ffffffffffffffffffffffffffffffffffffffff16613fde565b15613a86578373ffffffffffffffffffffffffffffffffffffffff1663150b7a02613946612d7c565b8786866040518563ffffffff1660e01b81526004016139689493929190615319565b602060405180830381600087803b15801561398257600080fd5b505af19250505080156139b357506040513d601f19601f820116820180604052508101906139b091906144f0565b60015b613a36573d80600081146139e3576040519150601f19603f3d011682016040523d82523d6000602084013e6139e8565b606091505b50600081511415613a2e576040517f08c379a0000000000000000000000000000000000000000000000000000000008152600401613a259061541f565b60405180910390fd5b805181602001fd5b63150b7a0260e01b7bffffffffffffffffffffffffffffffffffffffffffffffffffffffff1916817bffffffffffffffffffffffffffffffffffffffffffffffffffffffff191614915050613a8b565b600190505b949350505050565b505050565b6008805490506009600083815260200190815260200160002081905550600881908060018154018082558091505060019003906000526020600020016000909190919091505550565b60006001613aee8461205b565b613af89190615a6c565b9050600060076000848152602001908152602001600020549050818114613bdd576000600660008673ffffffffffffffffffffffffffffffffffffffff1673ffffffffffffffffffffffffffffffffffffffff168152602001908152602001600020600084815260200190815260200160002054905080600660008773ffffffffffffffffffffffffffffffffffffffff1673ffffffffffffffffffffffffffffffffffffffff168152602001908152602001600020600084815260200190815260200160002081905550816007600083815260200190815260200160002081905550505b6007600084815260200190815260200160002060009055600660008573ffffffffffffffffffffffffffffffffffffffff1673ffffffffffffffffffffffffffffffffffffffff16815260200190815260200160002060008381526020019081526020016000206000905550505050565b60006001600880549050613c629190615a6c565b9050600060096000848152602001908152602001600020549050600060088381548110613cb8577f4e487b7100000000000000000000000000000000000000000000000000000000600052603260045260246000fd5b906000526020600020015490508060088381548110613d00577f4e487b7100000000000000000000000000000000000000000000000000000000600052603260045260246000fd5b906000526020600020018190555081600960008381526020019081526020016000208190555060096000858152602001908152602001600020600090556008805480613d75577f4e487b7100000000000000000000000000000000000000000000000000000000600052603160045260246000fd5b6001900381819060005260206000200160009055905550505050565b6000613d9c8361205b565b905081600660008573ffffffffffffffffffffffffffffffffffffffff1673ffffffffffffffffffffffffffffffffffffffff168152602001908152602001600020600083815260200190815260200160002081905550806007600084815260200190815260200160002081905550505050565b600073ffffffffffffffffffffffffffffffffffffffff168273ffffffffffffffffffffffffffffffffffffffff161415613e80576040517f08c379a0000000000000000000000000000000000000000000000000000000008152600401613e77906155bf565b60405180910390fd5b613e8981612d10565b15613ec9576040517f08c379a0000000000000000000000000000000000000000000000000000000008152600401613ec09061547f565b60405180910390fd5b613ed56000838361372d565b6001600360008473ffffffffffffffffffffffffffffffffffffffff1673ffffffffffffffffffffffffffffffffffffffff1681526020019081526020016000206000828254613f25919061598b565b92505081905550816002600083815260200190815260200160002060006101000a81548173ffffffffffffffffffffffffffffffffffffffff021916908373ffffffffffffffffffffffffffffffffffffffff160217905550808273ffffffffffffffffffffffffffffffffffffffff16600073ffffffffffffffffffffffffffffffffffffffff167fddf252ad1be2c89b69c2b068fc378daa952ba7f163c4a11628f55a4df523b3ef60405160405180910390a45050565b600080823b905060008111915050919050565b828054613ffd90615b92565b90600052602060002090601f01602090048101928261401f5760008555614066565b82601f1061403857805160ff1916838001178555614066565b82800160010185558215614066579182015b8281111561406557825182559160200191906001019061404a565b5b5090506140739190614077565b5090565b5b80821115614090576000816000905550600101614078565b5090565b60006140a76140a28461584b565b61581a565b905080838252602082019050828560208602820111156140c657600080fd5b60005b858110156140f657816140dc8882614263565b8452602084019350602083019250506001810190506140c9565b5050509392505050565b600061411361410e84615877565b61581a565b90508281526020810184848401111561412b57600080fd5b614136848285615b50565b509392505050565b600061415161414c846158a7565b61581a565b90508281526020810184848401111561416957600080fd5b614174848285615b50565b509392505050565b60008135905061418b81615d8d565b92915050565b6000815190506141a081615d8d565b92915050565b600082601f8301126141b757600080fd5b81516141c7848260208601614094565b91505092915050565b6000813590506141df81615da4565b92915050565b6000813590506141f481615dbb565b92915050565b60008151905061420981615dbb565b92915050565b600082601f83011261422057600080fd5b8135614230848260208601614100565b91505092915050565b600082601f83011261424a57600080fd5b813561425a84826020860161413e565b91505092915050565b60008151905061427281615dd2565b92915050565b60008135905061428781615de9565b92915050565b60006020828403121561429f57600080fd5b60006142ad8482850161417c565b91505092915050565b6000602082840312156142c857600080fd5b60006142d684828501614191565b91505092915050565b600080604083850312156142f257600080fd5b60006143008582860161417c565b92505060206143118582860161417c565b9150509250929050565b60008060006060848603121561433057600080fd5b600061433e8682870161417c565b935050602061434f8682870161417c565b925050604061436086828701614278565b9150509250925092565b6000806000806080858703121561438057600080fd5b600061438e8782880161417c565b945050602061439f8782880161417c565b93505060406143b087828801614278565b925050606085013567ffffffffffffffff8111156143cd57600080fd5b6143d98782880161420f565b91505092959194509250565b600080604083850312156143f857600080fd5b60006144068582860161417c565b9250506020614417858286016141d0565b9150509250929050565b6000806040838503121561443457600080fd5b60006144428582860161417c565b925050602061445385828601614278565b9150509250929050565b60006020828403121561446f57600080fd5b600082015167ffffffffffffffff81111561448957600080fd5b614495848285016141a6565b91505092915050565b6000602082840312156144b057600080fd5b60006144be848285016141d0565b91505092915050565b6000602082840312156144d957600080fd5b60006144e7848285016141e5565b91505092915050565b60006020828403121561450257600080fd5b6000614510848285016141fa565b91505092915050565b60006020828403121561452b57600080fd5b600082013567ffffffffffffffff81111561454557600080fd5b61455184828501614239565b91505092915050565b60006020828403121561456c57600080fd5b600061457a84828501614278565b91505092915050565b600061458f8383615246565b60208301905092915050565b6145ac6145a782615ab2565b615c4a565b82525050565b6145bb81615aa0565b82525050565b6145d26145cd82615aa0565b615c38565b82525050565b60006145e3826158e7565b6145ed8185615915565b93506145f8836158d7565b8060005b838110156146295781516146108882614583565b975061461b83615908565b9250506001810190506145fc565b5085935050505092915050565b61463f81615ac4565b82525050565b61465661465182615ad0565b615c5c565b82525050565b6000614667826158f2565b6146718185615926565b9350614681818560208601615b5f565b61468a81615d6f565b840191505092915050565b61469e81615b3e565b82525050565b60006146af826158fd565b6146b98185615937565b93506146c9818560208601615b5f565b6146d281615d6f565b840191505092915050565b60006146e8826158fd565b6146f28185615948565b9350614702818560208601615b5f565b80840191505092915050565b600061471b603583615937565b91507f596f7520646f206e6f7420686176652074686520726571756972656420456c6560008301527f6d656e74616c7320746f206d696e74206120476f6400000000000000000000006020830152604082019050919050565b6000614781602b83615937565b91507f455243373231456e756d657261626c653a206f776e657220696e646578206f7560008301527f74206f6620626f756e64730000000000000000000000000000000000000000006020830152604082019050919050565b60006147e7603283615937565b91507f4552433732313a207472616e7366657220746f206e6f6e20455243373231526560008301527f63656976657220696d706c656d656e74657200000000000000000000000000006020830152604082019050919050565b600061484d602683615937565b91507f4f776e61626c653a206e6577206f776e657220697320746865207a65726f206160008301527f64647265737300000000000000000000000000000000000000000000000000006020830152604082019050919050565b60006148b3601883615937565b91507f5468652067616d6520697320616c7265616479206f76657200000000000000006000830152602082019050919050565b60006148f3601c83615937565b91507f4552433732313a20746f6b656e20616c7265616479206d696e746564000000006000830152602082019050919050565b6000614933602083615937565b91507f596f752068617665206e6f7420616371756972656420746865204176617461726000830152602082019050919050565b6000614973602483615937565b91507f4552433732313a207472616e7366657220746f20746865207a65726f2061646460008301527f72657373000000000000000000000000000000000000000000000000000000006020830152604082019050919050565b60006149d9601983615937565b91507f4552433732313a20617070726f766520746f2063616c6c6572000000000000006000830152602082019050919050565b6000614a19602c83615937565b91507f4552433732313a206f70657261746f7220717565727920666f72206e6f6e657860008301527f697374656e7420746f6b656e00000000000000000000000000000000000000006020830152604082019050919050565b6000614a7f602883615937565b91507f54686520476f64204f6620466972652068617320616c7265616479206265656e60008301527f20636c61696d65640000000000000000000000000000000000000000000000006020830152604082019050919050565b6000614ae5603883615937565b91507f4552433732313a20617070726f76652063616c6c6572206973206e6f74206f7760008301527f6e6572206e6f7220617070726f76656420666f7220616c6c00000000000000006020830152604082019050919050565b6000614b4b602a83615937565b91507f4552433732313a2062616c616e636520717565727920666f7220746865207a6560008301527f726f2061646472657373000000000000000000000000000000000000000000006020830152604082019050919050565b6000614bb1602983615937565b91507f4552433732313a206f776e657220717565727920666f72206e6f6e657869737460008301527f656e7420746f6b656e00000000000000000000000000000000000000000000006020830152604082019050919050565b6000614c17602383615937565b91507f546865204176617461722068617320616c7265616479206265656e20636c616960008301527f6d656400000000000000000000000000000000000000000000000000000000006020830152604082019050919050565b6000614c7d602083615937565b91507f4552433732313a206d696e7420746f20746865207a65726f20616464726573736000830152602082019050919050565b6000614cbd602c83615937565b91507f4552433732313a20617070726f76656420717565727920666f72206e6f6e657860008301527f697374656e7420746f6b656e00000000000000000000000000000000000000006020830152604082019050919050565b6000614d23601183615937565b91507f676574206d6f72652065746820627275680000000000000000000000000000006000830152602082019050919050565b6000614d63602083615937565b91507f4f776e61626c653a2063616c6c6572206973206e6f7420746865206f776e65726000830152602082019050919050565b6000614da3602983615937565b91507f4552433732313a207472616e73666572206f6620746f6b656e2074686174206960008301527f73206e6f74206f776e00000000000000000000000000000000000000000000006020830152604082019050919050565b6000614e09602f83615937565b91507f4552433732314d657461646174613a2055524920717565727920666f72206e6f60008301527f6e6578697374656e7420746f6b656e00000000000000000000000000000000006020830152604082019050919050565b6000614e6f600583615937565b91507f6e616868680000000000000000000000000000000000000000000000000000006000830152602082019050919050565b6000614eaf600d83615937565b91507f646f6e277420626520706f6f72000000000000000000000000000000000000006000830152602082019050919050565b6000614eef602183615937565b91507f4552433732313a20617070726f76616c20746f2063757272656e74206f776e6560008301527f72000000000000000000000000000000000000000000000000000000000000006020830152604082019050919050565b6000614f55600983615937565b91507f686f6c79206675636b00000000000000000000000000000000000000000000006000830152602082019050919050565b6000614f95600f83615937565b91507f6d696e74206e6f742061637469766500000000000000000000000000000000006000830152602082019050919050565b6000614fd5603183615937565b91507f4552433732313a207472616e736665722063616c6c6572206973206e6f74206f60008301527f776e6572206e6f7220617070726f7665640000000000000000000000000000006020830152604082019050919050565b600061503b602c83615937565b91507f455243373231456e756d657261626c653a20676c6f62616c20696e646578206f60008301527f7574206f6620626f756e647300000000000000000000000000000000000000006020830152604082019050919050565b60006150a1600b83615937565b91507f7765206f757420626162790000000000000000000000000000000000000000006000830152602082019050919050565b60006150e1602783615937565b91507f54686520476f64204f66204169722068617320616c7265616479206265656e2060008301527f636c61696d6564000000000000000000000000000000000000000000000000006020830152604082019050919050565b6000615147602983615937565b91507f54686520476f64204f662057617465722068617320616c72656164792062656560008301527f6e20636c61696d656400000000000000000000000000000000000000000000006020830152604082019050919050565b60006151ad601583615937565b91507f736f727279206e6f206d6f726520666f7220796f7500000000000000000000006000830152602082019050919050565b60006151ed603b83615937565b91507f596f7520646f206e6f7420686176652074686520726571756972656420656c6560008301527f6d656e74616c7320746f206d696e7420746865204176617461722e00000000006020830152604082019050919050565b61524f81615b06565b82525050565b61525e81615b34565b82525050565b61527561527082615b34565b615c78565b82525050565b600061528782856146dd565b915061529382846146dd565b91508190509392505050565b60006152ab8288615264565b6020820191506152bb8287614645565b6020820191506152cb828661459b565b6014820191506152db8285615264565b6020820191506152eb82846145c1565b6014820191508190509695505050505050565b600060208201905061531360008301846145b2565b92915050565b600060808201905061532e60008301876145b2565b61533b60208301866145b2565b6153486040830185615255565b818103606083015261535a818461465c565b905095945050505050565b6000602082019050818103600083015261537f81846145d8565b905092915050565b600060208201905061539c6000830184614636565b92915050565b60006020820190506153b76000830184614695565b92915050565b600060208201905081810360008301526153d781846146a4565b905092915050565b600060208201905081810360008301526153f88161470e565b9050919050565b6000602082019050818103600083015261541881614774565b9050919050565b60006020820190508181036000830152615438816147da565b9050919050565b6000602082019050818103600083015261545881614840565b9050919050565b60006020820190508181036000830152615478816148a6565b9050919050565b60006020820190508181036000830152615498816148e6565b9050919050565b600060208201905081810360008301526154b881614926565b9050919050565b600060208201905081810360008301526154d881614966565b9050919050565b600060208201905081810360008301526154f8816149cc565b9050919050565b6000602082019050818103600083015261551881614a0c565b9050919050565b6000602082019050818103600083015261553881614a72565b9050919050565b6000602082019050818103600083015261555881614ad8565b9050919050565b6000602082019050818103600083015261557881614b3e565b9050919050565b6000602082019050818103600083015261559881614ba4565b9050919050565b600060208201905081810360008301526155b881614c0a565b9050919050565b600060208201905081810360008301526155d881614c70565b9050919050565b600060208201905081810360008301526155f881614cb0565b9050919050565b6000602082019050818103600083015261561881614d16565b9050919050565b6000602082019050818103600083015261563881614d56565b9050919050565b6000602082019050818103600083015261565881614d96565b9050919050565b6000602082019050818103600083015261567881614dfc565b9050919050565b6000602082019050818103600083015261569881614e62565b9050919050565b600060208201905081810360008301526156b881614ea2565b9050919050565b600060208201905081810360008301526156d881614ee2565b9050919050565b600060208201905081810360008301526156f881614f48565b9050919050565b6000602082019050818103600083015261571881614f88565b9050919050565b6000602082019050818103600083015261573881614fc8565b9050919050565b600060208201905081810360008301526157588161502e565b9050919050565b6000602082019050818103600083015261577881615094565b9050919050565b60006020820190508181036000830152615798816150d4565b9050919050565b600060208201905081810360008301526157b88161513a565b9050919050565b600060208201905081810360008301526157d8816151a0565b9050919050565b600060208201905081810360008301526157f8816151e0565b9050919050565b60006020820190506158146000830184615255565b92915050565b6000604051905081810181811067ffffffffffffffff8211171561584157615840615d40565b5b8060405250919050565b600067ffffffffffffffff82111561586657615865615d40565b5b602082029050602081019050919050565b600067ffffffffffffffff82111561589257615891615d40565b5b601f19601f8301169050602081019050919050565b600067ffffffffffffffff8211156158c2576158c1615d40565b5b601f19601f8301169050602081019050919050565b6000819050602082019050919050565b600081519050919050565b600081519050919050565b600081519050919050565b6000602082019050919050565b600082825260208201905092915050565b600082825260208201905092915050565b600082825260208201905092915050565b600081905092915050565b600061595e82615b06565b915061596983615b06565b92508261ffff038211156159805761597f615cb3565b5b828201905092915050565b600061599682615b34565b91506159a183615b34565b9250827fffffffffffffffffffffffffffffffffffffffffffffffffffffffffffffffff038211156159d6576159d5615cb3565b5b828201905092915050565b60006159ec82615b34565b91506159f783615b34565b925082615a0757615a06615ce2565b5b828204905092915050565b6000615a1d82615b34565b9150615a2883615b34565b9250817fffffffffffffffffffffffffffffffffffffffffffffffffffffffffffffffff0483118215151615615a6157615a60615cb3565b5b828202905092915050565b6000615a7782615b34565b9150615a8283615b34565b925082821015615a9557615a94615cb3565b5b828203905092915050565b6000615aab82615b14565b9050919050565b6000615abd82615b14565b9050919050565b60008115159050919050565b6000819050919050565b60007fffffffff0000000000000000000000000000000000000000000000000000000082169050919050565b600061ffff82169050919050565b600073ffffffffffffffffffffffffffffffffffffffff82169050919050565b6000819050919050565b6000615b4982615b34565b9050919050565b82818337600083830152505050565b60005b83811015615b7d578082015181840152602081019050615b62565b83811115615b8c576000848401525b50505050565b60006002820490506001821680615baa57607f821691505b60208210811415615bbe57615bbd615d11565b5b50919050565b6000615bcf82615b06565b915061ffff821415615be457615be3615cb3565b5b600182019050919050565b6000615bfa82615b34565b91507fffffffffffffffffffffffffffffffffffffffffffffffffffffffffffffffff821415615c2d57615c2c615cb3565b5b600182019050919050565b6000615c4382615c66565b9050919050565b6000615c5582615c66565b9050919050565b6000819050919050565b6000615c7182615d80565b9050919050565b6000819050919050565b6000615c8d82615b34565b9150615c9883615b34565b925082615ca857615ca7615ce2565b5b828206905092915050565b7f4e487b7100000000000000000000000000000000000000000000000000000000600052601160045260246000fd5b7f4e487b7100000000000000000000000000000000000000000000000000000000600052601260045260246000fd5b7f4e487b7100000000000000000000000000000000000000000000000000000000600052602260045260246000fd5b7f4e487b7100000000000000000000000000000000000000000000000000000000600052604160045260246000fd5b6000601f19601f8301169050919050565b60008160601b9050919050565b615d9681615aa0565b8114615da157600080fd5b50565b615dad81615ac4565b8114615db857600080fd5b50565b615dc481615ada565b8114615dcf57600080fd5b50565b615ddb81615b06565b8114615de657600080fd5b50565b615df281615b34565b8114615dfd57600080fd5b5056fea2646970667358221220aae50097c3f0312f11ba289a2c6ee96b5f30a682744d27a3a2a4b7dec316698564736f6c6343000800003368747470733a2f2f526567756c6172416e67756973686564466f6e74732e72696674736d75726673737570706f2e7265706c2e636f2f6170692f656c656d656e74616c2f",
  "linkReferences": {},
  "deployedLinkReferences": {}
}